{
  "contractName": "HealthDataContract",
  "abi": [
    {
      "anonymous": false,
      "inputs": [
        {
          "indexed": true,
          "internalType": "address",
          "name": "user",
          "type": "address"
        },
        {
          "indexed": false,
          "internalType": "uint256",
          "name": "heartRate",
          "type": "uint256"
        },
        {
          "indexed": false,
          "internalType": "uint256",
          "name": "timestamp",
          "type": "uint256"
        }
      ],
      "name": "DataUploaded",
      "type": "event"
    },
    {
      "inputs": [
        {
          "internalType": "uint256",
          "name": "heartRate",
          "type": "uint256"
        }
      ],
      "name": "uploadHealthData",
      "outputs": [],
      "stateMutability": "nonpayable",
      "type": "function"
    },
    {
      "inputs": [
        {
          "internalType": "address",
          "name": "user",
          "type": "address"
        }
      ],
      "name": "getUserHealthData",
      "outputs": [
        {
          "components": [
            {
              "internalType": "uint256",
              "name": "heartRate",
              "type": "uint256"
            },
            {
              "internalType": "uint256",
              "name": "timestamp",
              "type": "uint256"
            }
          ],
          "internalType": "struct HealthDataContract.HealthData[]",
          "name": "",
          "type": "tuple[]"
        }
      ],
      "stateMutability": "view",
      "type": "function"
    },
    {
      "inputs": [
        {
          "internalType": "address",
          "name": "user",
          "type": "address"
        }
      ],
      "name": "getLatestHealthData",
      "outputs": [
        {
          "internalType": "uint256",
          "name": "",
          "type": "uint256"
        },
        {
          "internalType": "uint256",
          "name": "",
          "type": "uint256"
        }
      ],
      "stateMutability": "view",
      "type": "function"
    }
  ],
  "bytecode": "0x608060405234801561000f575f80fd5b506106cc8061001d5f395ff3fe608060405234801561000f575f80fd5b506004361061003f575f3560e01c80631532ba74146100435780634ece09ea14610074578063e4067f5e14610090575b5f80fd5b61005d600480360381019061005891906103ce565b6100c0565b60405161006b929190610411565b60405180910390f35b61008e60048036038101906100899190610462565b6101e2565b005b6100aa60048036038101906100a591906103ce565b6102c5565b6040516100b79190610571565b60405180910390f35b5f805f805f8573ffffffffffffffffffffffffffffffffffffffff1673ffffffffffffffffffffffffffffffffffffffff1681526020019081526020015f208054905090505f8111610147576040517f08c379a000000000000000000000000000000000000000000000000000000000815260040161013e906105eb565b60405180910390fd5b5f805f8673ffffffffffffffffffffffffffffffffffffffff1673ffffffffffffffffffffffffffffffffffffffff1681526020019081526020015f206001836101919190610636565b815481106101a2576101a1610669565b5b905f5260205f2090600202016040518060400160405290815f82015481526020016001820154815250509050805f01518160200151935093505050915091565b5f60405180604001604052808381526020014281525090505f803373ffffffffffffffffffffffffffffffffffffffff1673ffffffffffffffffffffffffffffffffffffffff1681526020019081526020015f2081908060018154018082558091505060019003905f5260205f2090600202015f909190919091505f820151815f01556020820151816001015550503373ffffffffffffffffffffffffffffffffffffffff167f9bec78c3932b709003db1860d1eb1ad0a9576d51c47ef3b17d1c7a12631d75c583426040516102b9929190610411565b60405180910390a25050565b60605f808373ffffffffffffffffffffffffffffffffffffffff1673ffffffffffffffffffffffffffffffffffffffff1681526020019081526020015f20805480602002602001604051908101604052809291908181526020015f905b82821015610365578382905f5260205f2090600202016040518060400160405290815f820154815260200160018201548152505081526020019060010190610322565b505050509050919050565b5f80fd5b5f73ffffffffffffffffffffffffffffffffffffffff82169050919050565b5f61039d82610374565b9050919050565b6103ad81610393565b81146103b7575f80fd5b50565b5f813590506103c8816103a4565b92915050565b5f602082840312156103e3576103e2610370565b5b5f6103f0848285016103ba565b91505092915050565b5f819050919050565b61040b816103f9565b82525050565b5f6040820190506104245f830185610402565b6104316020830184610402565b9392505050565b610441816103f9565b811461044b575f80fd5b50565b5f8135905061045c81610438565b92915050565b5f6020828403121561047757610476610370565b5b5f6104848482850161044e565b91505092915050565b5f81519050919050565b5f82825260208201905092915050565b5f819050602082019050919050565b6104bf816103f9565b82525050565b604082015f8201516104d95f8501826104b6565b5060208201516104ec60208501826104b6565b50505050565b5f6104fd83836104c5565b60408301905092915050565b5f602082019050919050565b5f61051f8261048d565b6105298185610497565b9350610534836104a7565b805f5b8381101561056457815161054b88826104f2565b975061055683610509565b925050600181019050610537565b5085935050505092915050565b5f6020820190508181035f8301526105898184610515565b905092915050565b5f82825260208201905092915050565b7f4e6f206865616c7468206461746120617661696c61626c6500000000000000005f82015250565b5f6105d5601883610591565b91506105e0826105a1565b602082019050919050565b5f6020820190508181035f830152610602816105c9565b9050919050565b7f4e487b71000000000000000000000000000000000000000000000000000000005f52601160045260245ffd5b5f610640826103f9565b915061064b836103f9565b925082820390508181111561066357610662610609565b5b92915050565b7f4e487b71000000000000000000000000000000000000000000000000000000005f52603260045260245ffdfea26469706673582212202b7869df7a4af4c40b454f8ccdf4159386d3e3b36f5ca99ad1e7b93bf6e57bc864736f6c63430008140033",
  "immutableReferences": {},
  "source": "// SPDX-License-Identifier: MIT\r\npragma solidity ^0.8.0;\r\n\r\ncontract HealthDataContract {\r\n    // \r\n    event DataUploaded(address indexed user, uint heartRate, uint timestamp);\r\n\r\n    // \r\n    struct HealthData {\r\n        uint heartRate;\r\n        uint timestamp;\r\n    }\r\n\r\n    // \r\n    mapping(address => HealthData[]) private userHealthRecords;\r\n\r\n    // \r\n    function uploadHealthData(uint heartRate) public {\r\n        // \r\n        HealthData memory newData = HealthData({\r\n            heartRate: heartRate,\r\n            timestamp: block.timestamp\r\n        });\r\n        userHealthRecords[msg.sender].push(newData);\r\n\r\n        // \r\n        emit DataUploaded(msg.sender, heartRate, block.timestamp);\r\n    }\r\n\r\n    // \r\n    function getUserHealthData(address user) public view returns (HealthData[] memory) {\r\n        return userHealthRecords[user];\r\n    }\r\n\r\n    // \r\n    function getLatestHealthData(address user) public view returns (uint, uint) {\r\n        uint length = userHealthRecords[user].length;\r\n        require(length > 0, \"No health data available\");\r\n        HealthData memory latestData = userHealthRecords[user][length - 1];\r\n        return (latestData.heartRate, latestData.timestamp);\r\n    }\r\n}\r\n",
  "sourcePath": "D:\\DZ\\Dz\\backend\\contracts\\HealthDataContract.sol",
  "compiler": {
    "name": "solc",
    "version": "0.8.20+commit.a1b79de6.Emscripten.clang"
  },
  "schemaVersion": "3.4.16",
  "updatedAt": "2024-11-12T14:15:08.834Z",
  "devdoc": {
    "kind": "dev",
    "methods": {},
    "version": 1
  },
  "userdoc": {
    "kind": "user",
    "methods": {},
    "version": 1
  }
}